:04000000BDEF3FF021
:107F6800000E956E83681200720ED36E000E9B6E23
:107F78001200026A016A0001C9EF3FF0010EC26EE9
:107F88000E0EC16E870EC06E1200B8EC3FF0C2EC48
:107F98003FF0B4EC3FF0E2EC3FF0020E025CD8A0F8
:107FA800D8EF3FF0DAEF3FF0DDEF3FF08390CFEF0F
:107FB8003FF08380CFEF3FF000EF00F0030E046E38
:107FC800080E036E770EE82EFED7032EFCD7042E7C
:107FD800FAD700F0C282C2B2F4EF3FF0F6EF3FF0FA
:107FE800EFEF3FF0C4CF01F0026A0150036EC350B7
:087FF800016E03C002F012004B
:020000040020DA
:08000000FFFFFFFFFFFFFFFF00
:020000040030CA
:0E000000FF081F1EFF8381FF0FC00FE00F409F
:00000001FF
