:0400000053EF3BF08F
:10768600000E956E83681200720ED36E000E9B6E0E
:107696001200050EC26E0D0EC16E870EC06E120070
:1076A6002F6A2E6A2D6A2C6A2B6A2A6A0001F9EF64
:1076B6003CF0030E296E080E286E770EE82EFED7D4
:1076C600282EFCD7292EFAD700F0C282C2B26EEF5E
:1076D6003BF070EF3BF069EF3BF0C4CF2EF02F6A22
:1076E6002E50286EC3502E6E28C02FF02EC001F0EB
:1076F6002FC002F0036A046A000E1FEC3CF001C0C2
:107706000FF002C010F003C011F004C012F0680EB2
:10771600136EE80E146E9F0E156E3B0E166EEBEC96
:107726003DF00FC02AF010C02BF011C02CF012C093
:107736002DF01200000E0114096E000E02140A6EDE
:10774600800E03140B6E7F0E04140C6E09500A1083
:107756000B100C10D8A4B2EF3BF0B4EF3BF0BCEF2B
:107766003BF0000E016E000E026E000E036E000E60
:10777600046E000E0514096E000E06140A6E800EC5
:1077860007140B6E7F0E08140C6E09500A100B10AE
:107796000C10D8A4D1EF3BF0D3EF3BF0DBEF3BF07E
:1077A600000E056E000E066E000E076E000E086EC9
:1077B60004AEE0EF3BF0E2EF3BF0EBEF3BF0016CA9
:1077C600021ED8B0022A031ED8B0032A800E045621
:1077D60008AEF0EF3BF0F2EF3BF0FBEF3BF0056C51
:1077E600061ED8B0062A071ED8B0072A800E0856ED
:1077F600000E011A000E021A000E031A800E041A59
:10780600000E051A000E061A000E071A800E081A38
:107816000550015C0650025807500358085004589A
:10782600D8B018EF3CF01AEF3CF01DEF3CF0D890C2
:107836001EEF3CF0D8801200096E0950D8B426EF2E
:107846003CF028EF3CF04AEF3CF004BE2FEF3CF052
:107856002DEF3CF04AEF3CF001C005F002C006F007
:1078660003C007F004C008F0051E061E071E081E0A
:10787600052A000E06220722082205C00BF006C0C4
:107886000CF007C00DF008C00EF052EF3CF001C03E
:107896000BF002C00CF003C00DF004C00EF0015056
:1078A600021003100410D8A45BEF3CF05DEF3CF02F
:1078B60067EF3CF0000E016E000E026E000E036EC6
:1078C600000E046EF8EF3CF0960E0A6E71EF3CF077
:1078D6000A2AD8900E320D320C320B32000E0B14DF
:1078E600056E000E0C14066E000E0D14076EFE0ECD
:1078F6000E14086E0550061007100810D8A486EF5F
:107906003CF088EF3CF06BEF3CF096EF3CF00A2A37
:10791600010E0B26000E0C220D220E22D8900E32DE
:107926000D320C320B32000E0B14056E000E0C14C9
:10793600066E000E0D14076EFF0E0E14086E05502F
:10794600061007100810D8A4ABEF3CF0ADEF3CF0E2
:107956008AEF3CF0B5EF3CF00A06D8900B360C36B1
:107966000D360E360DBEBAEF3CF0BCEF3CF0C4EF60
:107976003CF0020E0A60C2EF3CF0C4EF3CF0AFEF01
:107986003CF00AB0C9EF3CF0CBEF3CF0CCEF3CF05A
:107996000D9ED8900A320AC005F0066A076A086A80
:1079A60005C008F0076A066A056A05500B120650FC
:1079B6000C1207500D1208500E120950D8B4E6EFFB
:1079C6003CF0E8EF3CF0F0EF3CF004BEEFEF3CF0AB
:1079D600EDEF3CF0F0EF3CF00E8E0BC001F00CC06A
:1079E60002F00DC003F00EC004F0120047EC3BF0AD
:1079F6004CEC3BF043EC3BF05CEC3BF0000E016ED4
:107A0600000E026EC00E036E3F0E046E2AC005F015
:107A16002BC006F02CC007F02DC008F09DEC3BF003
:107A2600D8A018EF3DF01AEF3DF020EF3DF083802F
:107A3600838283848386FFEF3CF0000E016E000E86
:107A4600026EC00E036E3F0E046E2AC005F02BC0F8
:107A560006F02CC007F02DC008F09DEC3BF0D8B026
:107A660037EF3DF039EF3DF058EF3DF0000E016E77
:107A7600000E026E300E036E400E046E2AC005F034
:107A86002BC006F02CC007F02DC008F09DEC3BF093
:107A9600D8A050EF3DF052EF3DF058EF3DF0839007
:107AA600838283848386FFEF3CF0000E016E000E16
:107AB600026E300E036E400E046E2AC005F02BC017
:107AC60006F02CC007F02DC008F09DEC3BF0D8B0B6
:107AD6006FEF3DF071EF3DF090EF3DF0000E016E5F
:107AE600000E026E600E036E400E046E2AC005F094
:107AF6002BC006F02CC007F02DC008F09DEC3BF023
:107B0600D8A088EF3DF08AEF3DF090EF3DF08390EE
:107B1600839283848386FFEF3CF0000E016E000E95
:107B2600026E600E036E400E046E2AC005F02BC076
:107B360006F02CC007F02DC008F09DEC3BF0D8B045
:107B4600A7EF3DF0A9EF3DF0C8EF3DF0000E016E46
:107B5600000E026E880E036E400E046E2AC005F0FB
:107B66002BC006F02CC007F02DC008F09DEC3BF0B2
:107B7600D8A0C0EF3DF0C2EF3DF0C8EF3DF08390D6
:107B8600839283948386FFEF3CF0000E016E000E15
:107B9600026E880E036E400E046E2AC005F02BC0DE
:107BA60006F02CC007F02DC008F09DEC3BF0D8B0D5
:107BB600DFEF3DF0E1EF3DF0E7EF3DF0839083929C
:107BC60083948396FFEF3CF0FFEF3CF000EF00F06C
:107BD6001250800B1B6E12501224216E11AEF6EF5E
:107BE6003DF0F8EF3DF0F9EF3DF021802150D8B49B
:107BF600FFEF3DF001EF3EF014EF3EF02128D8A450
:107C060007EF3EF009EF3EF011EF3EF0000E0F6E6B
:107C1600000E106E000E116E000E126E118E1CEF0D
:107C26003EF0000E0F6E000E106E000E116E000E6E
:107C3600126E1650800B1B1A16501624206E15AEA7
:107C460027EF3EF029EF3EF02AEF3EF0208020504D
:107C5600D8B430EF3EF032EF3EF045EF3EF020284C
:107C6600D8A438EF3EF03AEF3EF042EF3EF0000E79
:107C7600136E000E146E000E156E000E166E158E27
:107C86004DEF3EF0000E136E000E146E000E156ED4
:107C9600000E166E2050D8B453EF3EF055EF3EF06E
:107CA6005DEF3EF02150D8A45BEF3EF05DEF3EF075
:107CB60067EF3EF0000E0F6E000E106E000E116E96
:107CC600000E126EFFEF3FF015500F02F3CF26F0B5
:107CD600F4CF27F026501C6E1D6A1E6A1F6A2750B5
:107CE600226E236A246A256A14501002F3CF26F006
:107CF600F4CF27F026501C26000E1D221E221F221E
:107D060027502226000E2322242225221350110258
:107D1600F3CF26F0F4CF27F026501C26000E1D22A6
:107D26001E221F2227502226000E2322242225222D
:107D36001EC01FF01DC01EF01CC01DF01C6A135093
:107D46001002F3CF26F0F4CF27F026501C2627503A
:107D56001D22000E1E22000E1F2214500F02F3CF0A
:107D660026F0F4CF27F026501C2627501D22000EA1
:107D76001E22000E1F221EC01FF01DC01EF01CC0BA
:107D86001DF01C6A13500F02F3CF26F0F4CF27F034
:107D960026501C2627501D22000E1E22000E1F22D2
:107DA60015501002F3CF26F0F4CF27F026502226E6
:107DB60027502322000E2422000E252214501102E1
:107DC600F3CF26F0F4CF27F0265022262750232281
:107DD600000E2422000E252215501102F3CF26F0A4
:107DE600F4CF27F02650176E2750186E196A1A6AB4
:107DF60019C01AF018C019F017C018F0176A1750F2
:107E0600222618502322195024221A5025221CC03B
:107E160017F01DC018F01EC019F01FC01AF0190E79
:107E26001AEF3FF0D8901A32193218321732E82E6C
:107E360015EF3FF0175022261850232219502422FE
:107E46001A5025221EC01FF01DC01EF01CC01DF0BA
:107E56001C6A205021C017F0186A1726000E182237
:107E6600820E1724266EFF0E1820276E50EF3FF065
:107E7600D89022362336243625361FAE45EF3FF0FE
:107E860047EF3FF048EF3FF02280D8901C361D3672
:107E96001E361F362606D8A0270624AE55EF3FF01D
:107EA60057EF3FF03BEF3FF0000E206E1FAE5EEF48
:107EB6003FF060EF3FF084EF3FF0FF0E1C14176EAB
:107EC600FF0E1D14186EFF0E1E14196E7F0E1F1462
:107ED6001A6E1750181019101A10D8B475EF3FF013
:107EE60077EF3FF07BEF3FF0010E206E84EF3FF01F
:107EF60022A080EF3FF082EF3FF084EF3FF077EF74
:107F06003FF02050D8B48AEF3FF08CEF3FF0B0EF4F
:107F16003FF0010E2226000E23222422252225A030
:107F260097EF3FF099EF3FF0B0EF3FF022C017F028
:107F360023C018F024C019F025C01AF01A341A32DA
:107F460019321832173217C022F018C023F019C0A0
:107F560024F01AC025F0264A272A27BEBBEF3FF099
:107F6600275008E12628D8A0BBEF3FF0BDEF3FF031
:107F7600C7EF3FF0000E226E000E236E800E246EB9
:107F86007F0E256EF5EF3FF027BED4EF3FF027506A
:107F960006E12604D8B0D2EF3FF0D4EF3FF0E0EF91
:107FA6003FF0000E226E000E236E000E246E000EB1
:107FB600256E000E1B6EF5EF3FF026C021F0FF0E7A
:107FC6002216FF0E23167F0E2416000E251621A05C
:107FD600EFEF3FF0F1EF3FF0F2EF3FF0248ED89055
:107FE6002130256E1B50251222C00FF023C010F041
:0A7FF60024C011F025C012F01200A3
:020000040020DA
:08000000FFFFFFFFFFFFFFFF00
:020000040030CA
:0E000000FF081F1EFF8381FF0FC00FE00F409F
:00000001FF
