:040000008AEF3FF054
:107EF400000E956E83681200720ED36E000E9B6E98
:107F04001200010EC26E0D0EC16E870EC06E1200FD
:107F1400046A036A026A016A0001C1EF3FF0210E9C
:107F2400E82EFED700F0010EC26EC282C2B29DEFEF
:107F34003FF09FEF3FF098EF3FF0C4CF03F0046AA7
:107F44000350056EC350036E05C004F01200210EE9
:107F5400E82EFED700F0050EC26EC282C2B2B5EFA3
:107F64003FF0B7EF3FF0B0EF3FF0C4CF01F0026A4B
:107F74000150056EC350016E05C002F012007EEC84
:107F84003FF083EC3FF07AEC3FF091EC3FF0A9EC4A
:107F94003FF00150035C02500458D8B0D4EF3FF0D6
:107FA400D6EF3FF0DBEF3FF0839083828384C7EF0B
:107FB4003FF00150031807E102500418D8A4E5EF7C
:107FC4003FF0E7EF3FF0ECEF3FF083808392838450
:107FD400C7EF3FF00350015C04500258D8B0F5EFEE
:107FE4003FF0F7EF3FF0FCEF3FF083808382839410
:0C7FF400C7EF3FF0C7EF3FF000EF00F0D8
:020000040020DA
:08000000FFFFFFFFFFFFFFFF00
:020000040030CA
:0E000000FF081F1EFF8381FF0FC00FE00F409F
:00000001FF
