:04000000AAEF39F03A
:10733200000ED36E000E9B6E1200000E946E000EB5
:10734200826E1200010EC26E0E0EC16E800EC06EF3
:10735200120000EE28F00A0EEE6AE806FDE10001D6
:107362008CEF3AF0820E016EDE0EE82EFED7012E71
:10737200FCD7C282C2B2C0EF39F0C2EF39F0BBEF24
:1073820039F0C4CF30F0316A3050016EC350306EE4
:1073920001C031F0120030C001F031C002F0036AC6
:1073A200046A000E44EC3BF001C00FF002C010F082
:1073B20003C011F004C012F0680E136EE80E146ED2
:1073C2009F0E156E3B0E166EEBEC3DF00FC02CF0CF
:1073D20010C02DF011C02EF012C02FF02CC001F001
:1073E2002DC002F02EC003F02FC004F0F50E056E82
:1073F200490E066E6E0E076E3A0E086E1EEC3CF0DB
:1074020001C028F002C029F003C02AF004C02BF00A
:107412001200000E0114096E000E02140A6E800E94
:1074220003140B6E7F0E04140C6E09500A100B101D
:107432000C10D8A41FEF3AF021EF3AF029EF3AF0FE
:10744200000E016E000E026E000E036E000E046E40
:10745200000E0514096E000E06140A6E800E071443
:107462000B6E7F0E08140C6E09500A100B100C10D4
:10747200D8A43EEF3AF040EF3AF048EF3AF0000E6F
:10748200056E000E066E000E076E000E086E04AE4C
:107492004DEF3AF04FEF3AF058EF3AF0016C021E1E
:1074A200D8B0022A031ED8B0032A800E045608AEB2
:1074B2005DEF3AF05FEF3AF068EF3AF0056C061EC6
:1074C200D8B0062A071ED8B0072A800E0856000E2A
:1074D200011A000E021A000E031A800E041A000E80
:1074E200051A000E061A000E071A800E081A055019
:1074F200015C065002580750035808500458D8B08F
:1075020085EF3AF087EF3AF08AEF3AF0D8908BEFB6
:107512003AF0D880120099EC39F09EEC39F0A3ECE5
:1075220039F0B3EC39F0CCEC39F0000E016EE00E1C
:10753200026EAB0E036E440E046E28C005F029C025
:1075420006F02AC007F02BC008F00AEC3AF0D8A0E7
:10755200ADEF3AF0AFEF3AF0B4EF3AF082808282C8
:10756200829492EF3AF0000E016EE00E026EAB0EC4
:10757200036E440E046E28C005F029C006F02AC02E
:1075820007F02BC008F00AEC3AF0D8B0CBEF3AF093
:10759200CDEF3AF0EBEF3AF0000E016EE00E026E24
:1075A2002B0E036E450E046E28C005F029C006F0AE
:1075B2002AC007F02BC008F00AEC3AF0D8A0E4EF9A
:1075C2003AF0E6EF3AF0EBEF3AF082808282829470
:1075D20092EF3AF0000E016EE00E026E2B0E036E79
:1075E200450E046E28C005F029C006F02AC007F037
:1075F2002BC008F00AEC3AF0D8B002EF3BF004EFEF
:107602003BF022EF3BF0000E016EE80E026E800EA0
:10761200036E450E046E28C005F029C006F02AC08C
:1076220007F02BC008F00AEC3AF0D8A01BEF3BF0B1
:107632001DEF3BF022EF3BF082808282828492EF48
:107642003AF0000E016EE80E026E800E036E450ED9
:10765200046E28C005F029C006F02AC007F02BC02E
:1076620008F00AEC3AF0D8B039EF3BF03BEF3BF0D0
:1076720040EF3BF082908292828492EF3AF092EF56
:107682003AF000EF00F0096E0950D8B44BEF3BF02E
:107692004DEF3BF06FEF3BF004BE54EF3BF052EF87
:1076A2003BF06FEF3BF001C005F002C006F003C0F3
:1076B20007F004C008F0051E061E071E081E052A54
:1076C200000E06220722082205C00BF006C00CF0AD
:1076D20007C00DF008C00EF077EF3BF001C00BF0D1
:1076E20002C00CF003C00DF004C00EF001500210F5
:1076F20003100410D8A480EF3BF082EF3BF08CEF34
:107702003BF0000E016E000E026E000E036E000EC4
:10771200046E1DEF3CF0960E0A6E96EF3BF00A2ABD
:10772200D8900E320D320C320B32000E0B14056E55
:10773200000E0C14066E000E0D14076EFE0E0E14D3
:10774200086E0550061007100810D8A4ABEF3BF0E6
:10775200ADEF3BF090EF3BF0BBEF3BF00A2A010E9E
:107762000B26000E0C220D220E22D8900E320D3264
:107772000C320B32000E0B14056E000E0C14066E4A
:10778200000E0D14076EFF0E0E14086E0550061043
:1077920007100810D8A4D0EF3BF0D2EF3BF0AFEFC8
:1077A2003BF0DAEF3BF00A06D8900B360C360D367A
:1077B2000E360DBEDFEF3BF0E1EF3BF0E9EF3BF0C1
:1077C200020E0A60E7EF3BF0E9EF3BF0D4EF3BF04B
:1077D2000AB0EEEF3BF0F0EF3BF0F1EF3BF00D9E25
:1077E200D8900A320AC005F0066A076A086A05C01C
:1077F20008F0076A066A056A05500B1206500C1259
:1078020007500D1208500E120950D8B40BEF3CF07D
:107812000DEF3CF015EF3CF004BE14EF3CF012EF1C
:107822003CF015EF3CF00E8E0BC001F00CC002F0E4
:107832000DC003F00EC004F012000450800B116E54
:1078420004500424186E03AE29EF3CF02BEF3CF0F9
:107852002CEF3CF018801850D8B432EF3CF034EFE3
:107862003CF049EF3CF01828D8A43AEF3CF03CEF4A
:107872003CF044EF3CF0000E016E000E026E000E72
:10788200036E000E046E038E000E046E51EF3CF088
:10789200000E016E000E026E000E036E000E046EEC
:1078A2000850800B111A08500824196E07AE5CEFBD
:1078B2003CF05EEF3CF05FEF3CF019801950D8B419
:1078C20065EF3CF067EF3CF07CEF3CF01928D8A460
:1078D2006DEF3CF06FEF3CF077EF3CF0000E056E81
:1078E200000E066E000E076E000E086E078E000E6A
:1078F200086E84EF3CF0000E056E000E066E000E60
:10790200076E000E086E0550061007100810D8A466
:107912008DEF3CF08FEF3CF0A7EF3CF0000E016ED4
:10792200000E026E000E036E000E046E800E031235
:107932007F0E04121150041201C001F002C002F0C5
:1079420003C003F004C004F0EAEF3DF01850D8A4DD
:10795200ADEF3CF0AFEF3CF0B9EF3CF0000E016E42
:10796200000E026E000E036E000E046EEAEF3DF092
:10797200195018C009F00A6A095E000E0A5A7F0EF1
:107982000924126E000E0A20136E01C00DF002C00F
:107992000EF003C00FF004C010F0000E016E000ED6
:1079A200026E000E036E000E046E000E146E000EC8
:1079B200156E000E166E000E176E000E196E1AEF7F
:1079C2003DF01950D8B4E8EF3CF0EAEF3CF001EF9B
:1079D2003DF0D8900D360E360F361036D89001365F
:1079E20002360336043617AEF9EF3CF0FBEF3CF0FB
:1079F200FCEF3CF00180D890143615361636173657
:107A020005500D5C06500E5807500F58085010587C
:107A1200D8A00EEF3DF010EF3DF019EF3DF0178CBE
:107A220005500D5E06500E5A07500F5A0850105A54
:107A3200192A190E196420EF3DF022EF3DF0E2EF12
:107A42003CF00D500E100F101010D8B42BEF3DF07B
:107A52002DEF3DF045EF3DF0148045EF3DF0D8901D
:107A6200013602360336043617AE3AEF3DF03CEFEC
:107A72003DF03DEF3DF00180D890143615361636B4
:107A820017361206D8A0130603AE4AEF3DF04CEFAC
:107A92003DF030EF3DF0000E196E17AE53EF3DF0A2
:107AA20055EF3DF079EF3DF0FF0E1414096EFF0E15
:107AB20015140A6EFF0E16140B6E7F0E17140C6E41
:107AC20009500A100B100C10D8B46AEF3DF06CEF9D
:107AD2003DF070EF3DF0010E196E79EF3DF001A01F
:107AE20075EF3DF077EF3DF079EF3DF06CEF3DF053
:107AF2001950D8B47FEF3DF081EF3DF0A5EF3DF096
:107B0200010E0126000E02220322042204A08CEFA1
:107B12003DF08EEF3DF0A5EF3DF001C009F002C04F
:107B22000AF003C00BF004C00CF00C340C320B3220
:107B32000A32093209C001F00AC002F00BC003F098
:107B42000CC004F0124A132A13BEB0EF3DF01350DA
:107B520008E11228D8A0B0EF3DF0B2EF3DF0BDEF42
:107B62003DF0000E136E1268000E016E000E026EE2
:107B7200000E036E000E046E13BECAEF3DF01350EA
:107B820006E11204D8B0C8EF3DF0CAEF3DF0D8EFDD
:107B92003DF0000E136E000E126E000E016E000E0E
:107BA200026E000E036E000E046E000E116E12C005
:107BB20018F018A0DFEF3DF0E1EF3DF0E4EF3DF00B
:107BC200038EE5EF3DF0039ED8901830046E9BEFD4
:107BD2003CF012001250800B1B6E12501224216EC8
:107BE20011AEF6EF3DF0F8EF3DF0F9EF3DF02180F8
:107BF2002150D8B4FFEF3DF001EF3EF014EF3EF01C
:107C02002128D8A407EF3EF009EF3EF011EF3EF035
:107C1200000E0F6E000E106E000E116E000E126E30
:107C2200118E1CEF3EF0000E0F6E000E106E000E55
:107C3200116E000E126E1650800B1B1A165016246F
:107C4200206E15AE27EF3EF029EF3EF02AEF3EF010
:107C520020802050D8B430EF3EF032EF3EF045EFB6
:107C62003EF02028D8A438EF3EF03AEF3EF042EF43
:107C72003EF0000E136E000E146E000E156E000E16
:107C8200166E158E4DEF3EF0000E136E000E146E42
:107C9200000E156E000E166E2050D8B453EF3EF053
:107CA20055EF3EF05DEF3EF02150D8A45BEF3EF081
:107CB2005DEF3EF067EF3EF0000E0F6E000E106EAD
:107CC200000E116E000E126EFFEF3FF015500F0204
:107CD200F3CF26F0F4CF27F026501C6E1D6A1E6AE1
:107CE2001F6A2750226E236A246A256A14501002E2
:107CF200F3CF26F0F4CF27F026501C26000E1D22CB
:107D02001E221F2227502226000E23222422252251
:107D120013501102F3CF26F0F4CF27F026501C2681
:107D2200000E1D221E221F2227502226000E232271
:107D3200242225221EC01FF01DC01EF01CC01DF0F3
:107D42001C6A13501002F3CF26F0F4CF27F026500E
:107D52001C2627501D22000E1E22000E1F22145028
:107D62000F02F3CF26F0F4CF27F026501C2627501F
:107D72001D22000E1E22000E1F221EC01FF01DC05B
:107D82001EF01CC01DF01C6A13500F02F3CF26F028
:107D9200F4CF27F026501C2627501D22000E1E224B
:107DA200000E1F2215501002F3CF26F0F4CF27F059
:107DB2002650222627502322000E2422000E25229E
:107DC20014501102F3CF26F0F4CF27F026502226CA
:107DD20027502322000E2422000E252215501102C4
:107DE200F3CF26F0F4CF27F02650176E2750186EE7
:107DF200196A1A6A19C01AF018C019F017C018F0D7
:107E0200176A1750222618502322195024221A507A
:107E120025221CC017F01DC018F01EC019F01FC08B
:107E22001AF0190E1AEF3FF0D8901A32193218329E
:107E32001732E82E15EF3FF0175022261850232252
:107E4200195024221A5025221EC01FF01DC01EF0F8
:107E52001CC01DF01C6A205021C017F0186A17269A
:107E6200000E1822820E1724266EFF0E1820276E8F
:107E720050EF3FF0D89022362336243625361FAEF7
:107E820045EF3FF047EF3FF048EF3FF02280D890B8
:107E92001C361D361E361F362606D8A0270624AEEF
:107EA20055EF3FF057EF3FF03BEF3FF0000E206EF3
:107EB2001FAE5EEF3FF060EF3FF084EF3FF0FF0E4A
:107EC2001C14176EFF0E1D14186EFF0E1E14196E71
:107ED2007F0E1F141A6E1750181019101A10D8B4EA
:107EE20075EF3FF077EF3FF07BEF3FF0010E206E32
:107EF20084EF3FF022A080EF3FF082EF3FF084EF6B
:107F02003FF077EF3FF02050D8B48AEF3FF08CEF8C
:107F12003FF0B0EF3FF0010E2226000E2322242272
:107F2200252225A097EF3FF099EF3FF0B0EF3FF009
:107F320022C017F023C018F024C019F025C01AF08F
:107F42001A341A3219321832173217C022F018C0F6
:107F520023F019C024F01AC025F0264A272A27BE8A
:107F6200BBEF3FF0275008E12628D8A0BBEF3FF037
:107F7200BDEF3FF0C7EF3FF0000E226E000E236E02
:107F8200800E246E7F0E256EF5EF3FF027BED4EFF4
:107F92003FF0275006E12604D8B0D2EF3FF0D4EFED
:107FA2003FF0E0EF3FF0000E226E000E236E000E57
:107FB200246E000E256E000E1B6EF5EF3FF026C0FC
:107FC20021F0FF0E2216FF0E23167F0E2416000E3E
:107FD200251621A0EFEF3FF0F1EF3FF0F2EF3FF077
:107FE200248ED8902130256E1B50251222C00FF00E
:0E7FF20023C010F024C011F025C012F01200C0
:020000040020DA
:08000000FFFFFFFFFFFFFFFF00
:020000040030CA
:0E000000FF02191EFF8181FF0FC00FE00F40AD
:00000001FF
